{
  "contractName": "CropInsurance",
  "abi": [
    {
      "inputs": [
        {
          "internalType": "uint256",
          "name": "_premium",
          "type": "uint256"
        },
        {
          "internalType": "uint256",
          "name": "_coverageAmount",
          "type": "uint256"
        },
        {
          "internalType": "uint256",
          "name": "_triggerThreshold",
          "type": "uint256"
        },
        {
          "internalType": "address payable",
          "name": "_insurer",
          "type": "address"
        },
        {
          "internalType": "address payable",
          "name": "_farmer",
          "type": "address"
        }
      ],
      "stateMutability": "nonpayable",
      "type": "constructor"
    },
    {
      "anonymous": false,
      "inputs": [
        {
          "indexed": false,
          "internalType": "uint256",
          "name": "_payoutAmount",
          "type": "uint256"
        }
      ],
      "name": "ClaimApproved",
      "type": "event"
    },
    {
      "anonymous": false,
      "inputs": [],
      "name": "ClaimRejected",
      "type": "event"
    },
    {
      "anonymous": false,
      "inputs": [],
      "name": "ClaimSubmitted",
      "type": "event"
    },
    {
      "anonymous": false,
      "inputs": [
        {
          "indexed": false,
          "internalType": "uint256",
          "name": "_payoutAmount",
          "type": "uint256"
        }
      ],
      "name": "PayoutAmountCalculated",
      "type": "event"
    },
    {
      "anonymous": false,
      "inputs": [
        {
          "indexed": false,
          "internalType": "uint256",
          "name": "_premium",
          "type": "uint256"
        },
        {
          "indexed": false,
          "internalType": "uint256",
          "name": "_coverageAmount",
          "type": "uint256"
        },
        {
          "indexed": false,
          "internalType": "uint256",
          "name": "_triggerThreshold",
          "type": "uint256"
        },
        {
          "indexed": false,
          "internalType": "address",
          "name": "_insurer",
          "type": "address"
        },
        {
          "indexed": false,
          "internalType": "address",
          "name": "_farmer",
          "type": "address"
        }
      ],
      "name": "PolicyCreated",
      "type": "event"
    },
    {
      "anonymous": false,
      "inputs": [
        {
          "indexed": false,
          "internalType": "uint256",
          "name": "_premium",
          "type": "uint256"
        }
      ],
      "name": "PremiumPaid",
      "type": "event"
    },
    {
      "inputs": [],
      "name": "balance",
      "outputs": [
        {
          "internalType": "uint256",
          "name": "",
          "type": "uint256"
        }
      ],
      "stateMutability": "view",
      "type": "function"
    },
    {
      "inputs": [],
      "name": "claimApproved",
      "outputs": [
        {
          "internalType": "bool",
          "name": "",
          "type": "bool"
        }
      ],
      "stateMutability": "view",
      "type": "function"
    },
    {
      "inputs": [],
      "name": "claimSubmitted",
      "outputs": [
        {
          "internalType": "bool",
          "name": "",
          "type": "bool"
        }
      ],
      "stateMutability": "view",
      "type": "function"
    },
    {
      "inputs": [],
      "name": "coverageAmount",
      "outputs": [
        {
          "internalType": "uint256",
          "name": "",
          "type": "uint256"
        }
      ],
      "stateMutability": "view",
      "type": "function"
    },
    {
      "inputs": [],
      "name": "farmer",
      "outputs": [
        {
          "internalType": "address payable",
          "name": "",
          "type": "address"
        }
      ],
      "stateMutability": "view",
      "type": "function"
    },
    {
      "inputs": [],
      "name": "insurer",
      "outputs": [
        {
          "internalType": "address payable",
          "name": "",
          "type": "address"
        }
      ],
      "stateMutability": "view",
      "type": "function"
    },
    {
      "inputs": [],
      "name": "payoutAmount",
      "outputs": [
        {
          "internalType": "uint256",
          "name": "",
          "type": "uint256"
        }
      ],
      "stateMutability": "view",
      "type": "function"
    },
    {
      "inputs": [],
      "name": "policyActive",
      "outputs": [
        {
          "internalType": "bool",
          "name": "",
          "type": "bool"
        }
      ],
      "stateMutability": "view",
      "type": "function"
    },
    {
      "inputs": [],
      "name": "premium",
      "outputs": [
        {
          "internalType": "uint256",
          "name": "",
          "type": "uint256"
        }
      ],
      "stateMutability": "view",
      "type": "function"
    },
    {
      "inputs": [],
      "name": "triggerThreshold",
      "outputs": [
        {
          "internalType": "uint256",
          "name": "",
          "type": "uint256"
        }
      ],
      "stateMutability": "view",
      "type": "function"
    },
    {
      "inputs": [],
      "name": "payPremium",
      "outputs": [],
      "stateMutability": "payable",
      "type": "function"
    },
    {
      "inputs": [],
      "name": "submitClaim",
      "outputs": [],
      "stateMutability": "nonpayable",
      "type": "function"
    },
    {
      "inputs": [],
      "name": "payout",
      "outputs": [],
      "stateMutability": "nonpayable",
      "type": "function"
    },
    {
      "inputs": [],
      "name": "cancelPolicy",
      "outputs": [],
      "stateMutability": "nonpayable",
      "type": "function"
    },
    {
      "inputs": [],
      "name": "getContractBalance",
      "outputs": [
        {
          "internalType": "uint256",
          "name": "",
          "type": "uint256"
        }
      ],
      "stateMutability": "view",
      "type": "function"
    },
    {
      "inputs": [],
      "name": "getWeatherValue",
      "outputs": [
        {
          "internalType": "uint256",
          "name": "",
          "type": "uint256"
        }
      ],
      "stateMutability": "pure",
      "type": "function"
    }
  ],
  "bytecode": "0x60806040523480156200001157600080fd5b5060405162001336380380620013368339818101604052810190620000379190620001da565b84600081905550836001819055508260028190555081600560006101000a81548173ffffffffffffffffffffffffffffffffffffffff021916908373ffffffffffffffffffffffffffffffffffffffff16021790555080600660006101000a81548173ffffffffffffffffffffffffffffffffffffffff021916908373ffffffffffffffffffffffffffffffffffffffff1602179055506001600660146101000a81548160ff0219169083151502179055507f2144be49b5e2cafc5d88396b687b06db8c0a1c8b507a3da54d1a3200d247085b858585858560405162000122959493929190620002de565b60405180910390a150505050506200033b565b600080fd5b6000819050919050565b6200014f816200013a565b81146200015b57600080fd5b50565b6000815190506200016f8162000144565b92915050565b600073ffffffffffffffffffffffffffffffffffffffff82169050919050565b6000620001a28262000175565b9050919050565b620001b48162000195565b8114620001c057600080fd5b50565b600081519050620001d481620001a9565b92915050565b600080600080600060a08688031215620001f957620001f862000135565b5b600062000209888289016200015e565b95505060206200021c888289016200015e565b94505060406200022f888289016200015e565b93505060606200024288828901620001c3565b92505060806200025588828901620001c3565b9150509295509295909350565b6200026d816200013a565b82525050565b6000819050919050565b60006200029e62000298620002928462000175565b62000273565b62000175565b9050919050565b6000620002b2826200027d565b9050919050565b6000620002c682620002a5565b9050919050565b620002d881620002b9565b82525050565b600060a082019050620002f5600083018862000262565b62000304602083018762000262565b62000313604083018662000262565b620003226060830185620002cd565b620003316080830184620002cd565b9695505050505050565b610feb806200034b6000396000f3fe6080604052600436106100f35760003560e01c80636f9fb98a1161008a578063d811fcf011610059578063d811fcf01461029f578063dbc837c5146102ca578063e0a73a93146102f5578063e47a37e314610320576100f3565b80636f9fb98a146101f3578063b69ef8a81461021e578063c764636e14610249578063d6c8dec714610274576100f3565b80634ef2cc00116100c65780634ef2cc001461016f57806363bd1d4a1461018657806367c0d00f1461019d5780636b46c8c3146101c8576100f3565b80631afbd128146100f857806329c08ba21461010f5780633582a83814610119578063470d606014610144575b600080fd5b34801561010457600080fd5b5061010d61034b565b005b610117610556565b005b34801561012557600080fd5b5061012e6105ec565b60405161013b9190610a8e565b60405180910390f35b34801561015057600080fd5b506101596105f5565b6040516101669190610ac4565b60405180910390f35b34801561017b57600080fd5b50610184610608565b005b34801561019257600080fd5b5061019b610777565b005b3480156101a957600080fd5b506101b2610997565b6040516101bf9190610a8e565b60405180910390f35b3480156101d457600080fd5b506101dd61099d565b6040516101ea9190610a8e565b60405180910390f35b3480156101ff57600080fd5b506102086109a3565b6040516102159190610a8e565b60405180910390f35b34801561022a57600080fd5b506102336109ad565b6040516102409190610a8e565b60405180910390f35b34801561025557600080fd5b5061025e6109b3565b60405161026b9190610ac4565b60405180910390f35b34801561028057600080fd5b506102896109c6565b6040516102969190610ac4565b60405180910390f35b3480156102ab57600080fd5b506102b46109d9565b6040516102c19190610b20565b60405180910390f35b3480156102d657600080fd5b506102df6109ff565b6040516102ec9190610b20565b60405180910390f35b34801561030157600080fd5b5061030a610a25565b6040516103179190610a8e565b60405180910390f35b34801561032c57600080fd5b50610335610a2b565b6040516103429190610a8e565b60405180910390f35b600660149054906101000a900460ff1661039a576040517f08c379a000000000000000000000000000000000000000000000000000000000815260040161039190610b98565b60405180910390fd5b600660159054906101000a900460ff16156103ea576040517f08c379a00000000000000000000000000000000000000000000000000000000081526004016103e190610c04565b60405180910390fd5b600660009054906101000a900473ffffffffffffffffffffffffffffffffffffffff1673ffffffffffffffffffffffffffffffffffffffff163373ffffffffffffffffffffffffffffffffffffffff161461047a576040517f08c379a000000000000000000000000000000000000000000000000000000000815260040161047190610c96565b60405180910390fd5b60006104846105ec565b905060025481116104f0576001600660166101000a81548160ff0219169083151502179055506104b2610a31565b7fd2d0ed0cccc8615643ade1eff3929a29ed8df75ebca85a3996e311c9b69e22896004546040516104e39190610a8e565b60405180910390a1610538565b6000600660166101000a81548160ff0219169083151502179055507ff1d5cc2892412572f903136db8e4a27091ef963e4df0f64f763e7510428c3f2560405160405180910390a15b6001600660156101000a81548160ff02191690831515021790555050565b600054341461059a576040517f08c379a000000000000000000000000000000000000000000000000000000000815260040161059190610d02565b60405180910390fd5b34600360008282546105ac9190610d51565b925050819055507fd5fe54a1d3fe92baab5cfeea302d72384e60a977bafc1662eeab2798931cd6fa346040516105e29190610a8e565b60405180910390a1565b6000604b905090565b600660169054906101000a900460ff1681565b600560009054906101000a900473ffffffffffffffffffffffffffffffffffffffff1673ffffffffffffffffffffffffffffffffffffffff163373ffffffffffffffffffffffffffffffffffffffff1614610698576040517f08c379a000000000000000000000000000000000000000000000000000000000815260040161068f90610df7565b60405180910390fd5b600660149054906101000a900460ff166106e7576040517f08c379a00000000000000000000000000000000000000000000000000000000081526004016106de90610b98565b60405180910390fd5b600560009054906101000a900473ffffffffffffffffffffffffffffffffffffffff1673ffffffffffffffffffffffffffffffffffffffff166108fc6003549081150290604051600060405180830381858888f19350505050158015610751573d6000803e3d6000fd5b5060006003819055506000600660146101000a81548160ff021916908315150217905550565b600660149054906101000a900460ff166107c6576040517f08c379a00000000000000000000000000000000000000000000000000000000081526004016107bd90610b98565b60405180910390fd5b600660159054906101000a900460ff16610815576040517f08c379a000000000000000000000000000000000000000000000000000000000815260040161080c90610e63565b60405180910390fd5b600660169054906101000a900460ff16610864576040517f08c379a000000000000000000000000000000000000000000000000000000000815260040161085b90610ecf565b60405180910390fd5b600560009054906101000a900473ffffffffffffffffffffffffffffffffffffffff1673ffffffffffffffffffffffffffffffffffffffff163373ffffffffffffffffffffffffffffffffffffffff16146108f4576040517f08c379a00000000000000000000000000000000000000000000000000000000081526004016108eb90610f61565b60405180910390fd5b600560009054906101000a900473ffffffffffffffffffffffffffffffffffffffff1673ffffffffffffffffffffffffffffffffffffffff166108fc6004549081150290604051600060405180830381858888f1935050505015801561095e573d6000803e3d6000fd5b50600454600360008282546109739190610f81565b925050819055506000600660146101000a81548160ff021916908315150217905550565b60015481565b60045481565b6000600354905090565b60035481565b600660149054906101000a900460ff1681565b600660159054906101000a900460ff1681565b600660009054906101000a900473ffffffffffffffffffffffffffffffffffffffff1681565b600560009054906101000a900473ffffffffffffffffffffffffffffffffffffffff1681565b60005481565b60025481565b6001546004819055507f48459932cb6bfd9182e02a5dece7ca7e6d22dbf51a6f9d02d753c2b775502b7b600454604051610a6b9190610a8e565b60405180910390a1565b6000819050919050565b610a8881610a75565b82525050565b6000602082019050610aa36000830184610a7f565b92915050565b60008115159050919050565b610abe81610aa9565b82525050565b6000602082019050610ad96000830184610ab5565b92915050565b600073ffffffffffffffffffffffffffffffffffffffff82169050919050565b6000610b0a82610adf565b9050919050565b610b1a81610aff565b82525050565b6000602082019050610b356000830184610b11565b92915050565b600082825260208201905092915050565b7f506f6c696379206e6f7420616374697665000000000000000000000000000000600082015250565b6000610b82601183610b3b565b9150610b8d82610b4c565b602082019050919050565b60006020820190508181036000830152610bb181610b75565b9050919050565b7f436c61696d20616c7265616479207375626d6974746564000000000000000000600082015250565b6000610bee601783610b3b565b9150610bf982610bb8565b602082019050919050565b60006020820190508181036000830152610c1d81610be1565b9050919050565b7f4f6e6c7920746865206661726d65722063616e207375626d6974206120636c6160008201527f696d000000000000000000000000000000000000000000000000000000000000602082015250565b6000610c80602283610b3b565b9150610c8b82610c24565b604082019050919050565b60006020820190508181036000830152610caf81610c73565b9050919050565b7f496e636f7272656374207072656d69756d20616d6f756e740000000000000000600082015250565b6000610cec601883610b3b565b9150610cf782610cb6565b602082019050919050565b60006020820190508181036000830152610d1b81610cdf565b9050919050565b7f4e487b7100000000000000000000000000000000000000000000000000000000600052601160045260246000fd5b6000610d5c82610a75565b9150610d6783610a75565b9250828201905080821115610d7f57610d7e610d22565b5b92915050565b7f4f6e6c792074686520696e73757265722063616e2063616e63656c207468652060008201527f706f6c6963790000000000000000000000000000000000000000000000000000602082015250565b6000610de1602683610b3b565b9150610dec82610d85565b604082019050919050565b60006020820190508181036000830152610e1081610dd4565b9050919050565b7f4e6f20636c61696d207375626d69747465640000000000000000000000000000600082015250565b6000610e4d601283610b3b565b9150610e5882610e17565b602082019050919050565b60006020820190508181036000830152610e7c81610e40565b9050919050565b7f436c61696d206e6f7420617070726f7665640000000000000000000000000000600082015250565b6000610eb9601283610b3b565b9150610ec482610e83565b602082019050919050565b60006020820190508181036000830152610ee881610eac565b9050919050565b7f4f6e6c792074686520696e73757265722063616e206d616b65207061796f757460008201527f7300000000000000000000000000000000000000000000000000000000000000602082015250565b6000610f4b602183610b3b565b9150610f5682610eef565b604082019050919050565b60006020820190508181036000830152610f7a81610f3e565b9050919050565b6000610f8c82610a75565b9150610f9783610a75565b9250828203905081811115610faf57610fae610d22565b5b9291505056fea2646970667358221220ec4d4888587ff0a15f2336678fd993cc72e6689b5308bcc4e3734e7617af5d7b64736f6c63430008110033",
  "immutableReferences": {},
  "source": "//SPDX-License-Identifier: MIT\r\n\r\npragma solidity ^0.8.17;\r\n\r\ncontract CropInsurance {\r\n    \r\n    uint public premium;\r\n    uint public coverageAmount;\r\n    uint public triggerThreshold;\r\n    uint public balance;\r\n    uint public payoutAmount;\r\n    address payable public insurer;\r\n    address payable public farmer;\r\n    bool public policyActive;\r\n    bool public claimSubmitted;\r\n    bool public claimApproved;\r\n    \r\n    event PolicyCreated(uint _premium, uint _coverageAmount, uint _triggerThreshold, address _insurer, address _farmer);\r\n    event PremiumPaid(uint _premium);\r\n    event PayoutAmountCalculated(uint _payoutAmount);\r\n    event ClaimSubmitted();\r\n    event ClaimApproved(uint _payoutAmount);\r\n    event ClaimRejected();\r\n    \r\n    constructor(uint _premium, uint _coverageAmount, uint _triggerThreshold, address payable _insurer, address payable _farmer) {\r\n        premium = _premium;\r\n        coverageAmount = _coverageAmount;\r\n        triggerThreshold = _triggerThreshold;\r\n        insurer = _insurer;\r\n        farmer = _farmer;\r\n        policyActive = true;\r\n        emit PolicyCreated(_premium, _coverageAmount, _triggerThreshold, _insurer, _farmer);\r\n    }\r\n    \r\n    function payPremium() public payable {\r\n        require(msg.value == premium, \"Incorrect premium amount\");\r\n        balance += msg.value;\r\n        emit PremiumPaid(msg.value);\r\n    }\r\n    \r\n    function calculatePayoutAmount() private {\r\n        payoutAmount = coverageAmount;\r\n        emit PayoutAmountCalculated(payoutAmount);\r\n    }\r\n    \r\n    function submitClaim() public {\r\n        require(policyActive, \"Policy not active\");\r\n        require(!claimSubmitted, \"Claim already submitted\");\r\n        require(msg.sender == farmer, \"Only the farmer can submit a claim\");\r\n        \r\n        // Call machine learning function to determine weather conditions\r\n        // and compare with trigger threshold\r\n        uint weatherValue = getWeatherValue(); // Example function for getting weather data\r\n        if (weatherValue <= triggerThreshold) {\r\n            claimApproved = true;\r\n            calculatePayoutAmount();\r\n            emit ClaimApproved(payoutAmount);\r\n        } else {\r\n            claimApproved = false;\r\n            emit ClaimRejected();\r\n        }\r\n        claimSubmitted = true;\r\n    }\r\n    \r\n    function payout() public {\r\n        require(policyActive, \"Policy not active\");\r\n        require(claimSubmitted, \"No claim submitted\");\r\n        require(claimApproved, \"Claim not approved\");\r\n        require(msg.sender == insurer, \"Only the insurer can make payouts\");\r\n        \r\n        insurer.transfer(payoutAmount);\r\n        balance -= payoutAmount;\r\n        policyActive = false;\r\n    }\r\n    \r\n    function cancelPolicy() public {\r\n        require(msg.sender == insurer, \"Only the insurer can cancel the policy\");\r\n        require(policyActive, \"Policy not active\");\r\n        \r\n        insurer.transfer(balance);\r\n        balance = 0;\r\n        policyActive = false;\r\n    }\r\n    \r\n    function getContractBalance() public view returns (uint) {\r\n        return balance;\r\n    }\r\n    \r\n    function getWeatherValue() public pure returns (uint) {\r\n        // Example function to get weather data and return a numeric value\r\n        // This can be replaced with the actual machine learning function\r\n        return 75;\r\n    }\r\n    \r\n}\r\n",
  "sourcePath": "C:\\Users\\Asus\\OneDrive\\Desktop\\hackhathon project\\contracts\\CropInsurance.sol",
  "compiler": {
    "name": "solc",
    "version": "0.8.17+commit.8df45f5f.Emscripten.clang"
  },
  "schemaVersion": "3.4.11",
  "updatedAt": "2023-03-01T10:31:55.232Z",
  "devdoc": {
    "kind": "dev",
    "methods": {},
    "version": 1
  },
  "userdoc": {
    "kind": "user",
    "methods": {},
    "version": 1
  }
}