{
  "contractName": "Insurance",
  "abi": [
    {
      "inputs": [
        {
          "internalType": "address payable",
          "name": "_riskManager",
          "type": "address"
        }
      ],
      "stateMutability": "nonpayable",
      "type": "constructor"
    },
    {
      "anonymous": false,
      "inputs": [
        {
          "indexed": true,
          "internalType": "address",
          "name": "_recipient",
          "type": "address"
        },
        {
          "indexed": false,
          "internalType": "uint256",
          "name": "_amount",
          "type": "uint256"
        }
      ],
      "name": "Payout",
      "type": "event"
    },
    {
      "anonymous": false,
      "inputs": [
        {
          "indexed": true,
          "internalType": "address",
          "name": "_riskManager",
          "type": "address"
        }
      ],
      "name": "PolicyCreated",
      "type": "event"
    },
    {
      "anonymous": false,
      "inputs": [
        {
          "indexed": false,
          "internalType": "uint256",
          "name": "_amount",
          "type": "uint256"
        }
      ],
      "name": "PremiumReceived",
      "type": "event"
    },
    {
      "inputs": [],
      "name": "balance",
      "outputs": [
        {
          "internalType": "uint256",
          "name": "",
          "type": "uint256"
        }
      ],
      "stateMutability": "view",
      "type": "function"
    },
    {
      "inputs": [],
      "name": "riskManager",
      "outputs": [
        {
          "internalType": "address payable",
          "name": "",
          "type": "address"
        }
      ],
      "stateMutability": "view",
      "type": "function"
    },
    {
      "inputs": [],
      "name": "payPremium",
      "outputs": [],
      "stateMutability": "payable",
      "type": "function"
    },
    {
      "inputs": [
        {
          "internalType": "uint256",
          "name": "_amount",
          "type": "uint256"
        }
      ],
      "name": "pay",
      "outputs": [],
      "stateMutability": "nonpayable",
      "type": "function"
    }
  ],
  "bytecode": "0x608060405234801561001057600080fd5b5060405161080d38038061080d8339818101604052810190610032919061011f565b80600160006101000a81548173ffffffffffffffffffffffffffffffffffffffff021916908373ffffffffffffffffffffffffffffffffffffffff1602179055508073ffffffffffffffffffffffffffffffffffffffff167f2f111d8a56aa0ad671b0442ae028827407496656571a697781157db90a03ae1460405160405180910390a25061014c565b600080fd5b600073ffffffffffffffffffffffffffffffffffffffff82169050919050565b60006100ec826100c1565b9050919050565b6100fc816100e1565b811461010757600080fd5b50565b600081519050610119816100f3565b92915050565b600060208284031215610135576101346100bc565b5b60006101438482850161010a565b91505092915050565b6106b28061015b6000396000f3fe60806040526004361061003f5760003560e01c806329c08ba214610044578063478426631461004e578063b69ef8a814610079578063c290d691146100a4575b600080fd5b61004c6100cd565b005b34801561005a57600080fd5b50610063610161565b6040516100709190610397565b60405180910390f35b34801561008557600080fd5b5061008e610187565b60405161009b91906103cb565b60405180910390f35b3480156100b057600080fd5b506100cb60048036038101906100c69190610417565b61018d565b005b60003411610110576040517f08c379a0000000000000000000000000000000000000000000000000000000008152600401610107906104c7565b60405180910390fd5b346000808282546101219190610516565b925050819055507f426fde376ad06cb3d6079fd86f5696a4de5382bccf98c90ed6b935014588fd783460405161015791906103cb565b60405180910390a1565b600160009054906101000a900473ffffffffffffffffffffffffffffffffffffffff1681565b60005481565b600160009054906101000a900473ffffffffffffffffffffffffffffffffffffffff1673ffffffffffffffffffffffffffffffffffffffff163373ffffffffffffffffffffffffffffffffffffffff161461021d576040517f08c379a0000000000000000000000000000000000000000000000000000000008152600401610214906105bc565b60405180910390fd5b600054811115610262576040517f08c379a000000000000000000000000000000000000000000000000000000000815260040161025990610628565b60405180910390fd5b600160009054906101000a900473ffffffffffffffffffffffffffffffffffffffff1673ffffffffffffffffffffffffffffffffffffffff166108fc829081150290604051600060405180830381858888f193505050501580156102ca573d6000803e3d6000fd5b50806000808282546102dc9190610648565b92505081905550600160009054906101000a900473ffffffffffffffffffffffffffffffffffffffff1673ffffffffffffffffffffffffffffffffffffffff167f5afeca38b2064c23a692c4cf353015d80ab3ecc417b4f893f372690c11fbd9a68260405161034b91906103cb565b60405180910390a250565b600073ffffffffffffffffffffffffffffffffffffffff82169050919050565b600061038182610356565b9050919050565b61039181610376565b82525050565b60006020820190506103ac6000830184610388565b92915050565b6000819050919050565b6103c5816103b2565b82525050565b60006020820190506103e060008301846103bc565b92915050565b600080fd5b6103f4816103b2565b81146103ff57600080fd5b50565b600081359050610411816103eb565b92915050565b60006020828403121561042d5761042c6103e6565b5b600061043b84828501610402565b91505092915050565b600082825260208201905092915050565b7f5072656d69756d20616d6f756e74206d7573742062652067726561746572207460008201527f68616e207a65726f000000000000000000000000000000000000000000000000602082015250565b60006104b1602883610444565b91506104bc82610455565b604082019050919050565b600060208201905081810360008301526104e0816104a4565b9050919050565b7f4e487b7100000000000000000000000000000000000000000000000000000000600052601160045260246000fd5b6000610521826103b2565b915061052c836103b2565b9250828201905080821115610544576105436104e7565b5b92915050565b7f4f6e6c7920746865207269736b206d616e616765722063616e206d616b65207060008201527f61796f7574730000000000000000000000000000000000000000000000000000602082015250565b60006105a6602683610444565b91506105b18261054a565b604082019050919050565b600060208201905081810360008301526105d581610599565b9050919050565b7f496e73756666696369656e742066756e64730000000000000000000000000000600082015250565b6000610612601283610444565b915061061d826105dc565b602082019050919050565b6000602082019050818103600083015261064181610605565b9050919050565b6000610653826103b2565b915061065e836103b2565b9250828203905081811115610676576106756104e7565b5b9291505056fea26469706673582212203829ef9c4dd1b8ce4c2903362965568bd060c42edffb1c9d3a39dca29757d29964736f6c63430008110033",
  "immutableReferences": {},
  "source": "// SPDX-License-Identifier: MIT\r\n\r\npragma solidity ^0.8.17;\r\n\r\ninterface WeatherData {\r\n    function getWeather() external view returns (uint);\r\n}\r\n\r\ncontract Insurance {\r\n    uint public balance;\r\n    address payable public riskManager;\r\n    \r\n    event PolicyCreated(address indexed _riskManager);\r\n    event PremiumReceived(uint _amount);\r\n    event Payout(address indexed _recipient, uint _amount);\r\n    \r\n    constructor(address payable _riskManager) {\r\n        riskManager = _riskManager;\r\n        emit PolicyCreated(_riskManager);\r\n    }\r\n    \r\n    function payPremium() public payable {\r\n        require(msg.value > 0, \"Premium amount must be greater than zero\");\r\n        balance += msg.value;\r\n        emit PremiumReceived(msg.value);\r\n    }\r\n    \r\n    function pay(uint _amount) public {\r\n        require(msg.sender == riskManager, \"Only the risk manager can make payouts\");\r\n        require(_amount <= balance, \"Insufficient funds\");\r\n        \r\n        riskManager.transfer(_amount);\r\n        balance -= _amount;\r\n        emit Payout(riskManager, _amount);\r\n    }\r\n}\r\n\r\ncontract RiskManager {\r\n    address payable public insurer;\r\n    address payable public farmer;\r\n    uint public premium;\r\n    uint public coverageAmount;\r\n    uint public triggerThreshold;\r\n    bool public policyActive;\r\n    bool public claimSubmitted;\r\n    bool public claimApproved;\r\n    uint public payoutAmount;\r\n    Insurance public insurance;\r\n    WeatherData public weatherData;\r\n    \r\n    event PolicyCreated(address indexed _insurer, address indexed _farmer, uint _premium, uint _coverageAmount, uint _triggerThreshold);\r\n    event PolicyActivated();\r\n    event PolicyCancelled();\r\n    event ClaimSubmitted();\r\n    event ClaimApproved(uint _payoutAmount);\r\n    event ClaimRejected();\r\n    \r\n    constructor(\r\n        address payable _insurer,\r\n        address payable _farmer,\r\n        uint _premium,\r\n        uint _coverageAmount,\r\n        uint _triggerThreshold,\r\n        address _weatherDataContract\r\n    ) {\r\n        insurer = _insurer;\r\n        farmer = _farmer;\r\n        premium = _premium;\r\n        coverageAmount = _coverageAmount;\r\n        triggerThreshold = _triggerThreshold;\r\n        weatherData = WeatherData(_weatherDataContract);\r\n        insurance = new Insurance(payable(address(this)));\r\n        emit PolicyCreated(_insurer, _farmer, _premium, _coverageAmount, _triggerThreshold);\r\n    }\r\n    \r\n    function activatePolicy() public {\r\n        require(policyActive == false, \"Policy is already active\");\r\n        require(msg.sender == farmer, \"Only the farmer can activate the policy\");\r\n        policyActive = true;\r\n        emit PolicyActivated();\r\n    }\r\n    \r\n    function cancelPolicy() public {\r\n        require(policyActive == true, \"Policy is already cancelled\");\r\n        require(msg.sender == farmer || msg.sender == insurer, \"Only the farmer or insurer can cancel the policy\");\r\n        policyActive = false;\r\n        uint balance = insurance.balance();\r\n        if (balance > 0) {\r\n            insurer.transfer(balance);\r\n        }\r\n        emit PolicyCancelled();\r\n    }\r\n    \r\n    function submitClaim() public {\r\n        require(policyActive == true, \"Policy is not active\");\r\n        require(claimSubmitted == false, \"Claim has already been submitted\");\r\n        require(msg.sender == farmer, \"Only the farmer can submit a claim\");\r\n        uint weatherValue = weatherData.getWeather();\r\n        if (weatherValue <= triggerThreshold) {\r\n            claimApproved = true;\r\n            payoutAmount = coverageAmount;\r\n            insurance.pay(payoutAmount);\r\n            emit ClaimApproved(payoutAmount);\r\n        } else {\r\n            claimApproved = false;\r\n            emit ClaimRejected();\r\n        }\r\n        claimSubmitted = true;\r\n        emit ClaimSubmitted();\r\n    }\r\n}",
  "sourcePath": "C:\\Users\\Asus\\OneDrive\\Desktop\\hackhathon project\\contracts\\riskmanager.sol",
  "compiler": {
    "name": "solc",
    "version": "0.8.17+commit.8df45f5f.Emscripten.clang"
  },
  "schemaVersion": "3.4.11",
  "updatedAt": "2023-03-01T10:31:55.238Z",
  "devdoc": {
    "kind": "dev",
    "methods": {},
    "version": 1
  },
  "userdoc": {
    "kind": "user",
    "methods": {},
    "version": 1
  }
}