{
  "contractName": "RiskManager",
  "abi": [
    {
      "inputs": [
        {
          "internalType": "address payable",
          "name": "_insurer",
          "type": "address"
        },
        {
          "internalType": "address payable",
          "name": "_farmer",
          "type": "address"
        },
        {
          "internalType": "uint256",
          "name": "_premium",
          "type": "uint256"
        },
        {
          "internalType": "uint256",
          "name": "_coverageAmount",
          "type": "uint256"
        },
        {
          "internalType": "uint256",
          "name": "_triggerThreshold",
          "type": "uint256"
        },
        {
          "internalType": "address",
          "name": "_weatherDataContract",
          "type": "address"
        }
      ],
      "stateMutability": "nonpayable",
      "type": "constructor"
    },
    {
      "anonymous": false,
      "inputs": [
        {
          "indexed": false,
          "internalType": "uint256",
          "name": "_payoutAmount",
          "type": "uint256"
        }
      ],
      "name": "ClaimApproved",
      "type": "event"
    },
    {
      "anonymous": false,
      "inputs": [],
      "name": "ClaimRejected",
      "type": "event"
    },
    {
      "anonymous": false,
      "inputs": [],
      "name": "ClaimSubmitted",
      "type": "event"
    },
    {
      "anonymous": false,
      "inputs": [],
      "name": "PolicyActivated",
      "type": "event"
    },
    {
      "anonymous": false,
      "inputs": [],
      "name": "PolicyCancelled",
      "type": "event"
    },
    {
      "anonymous": false,
      "inputs": [
        {
          "indexed": true,
          "internalType": "address",
          "name": "_insurer",
          "type": "address"
        },
        {
          "indexed": true,
          "internalType": "address",
          "name": "_farmer",
          "type": "address"
        },
        {
          "indexed": false,
          "internalType": "uint256",
          "name": "_premium",
          "type": "uint256"
        },
        {
          "indexed": false,
          "internalType": "uint256",
          "name": "_coverageAmount",
          "type": "uint256"
        },
        {
          "indexed": false,
          "internalType": "uint256",
          "name": "_triggerThreshold",
          "type": "uint256"
        }
      ],
      "name": "PolicyCreated",
      "type": "event"
    },
    {
      "inputs": [],
      "name": "claimApproved",
      "outputs": [
        {
          "internalType": "bool",
          "name": "",
          "type": "bool"
        }
      ],
      "stateMutability": "view",
      "type": "function"
    },
    {
      "inputs": [],
      "name": "claimSubmitted",
      "outputs": [
        {
          "internalType": "bool",
          "name": "",
          "type": "bool"
        }
      ],
      "stateMutability": "view",
      "type": "function"
    },
    {
      "inputs": [],
      "name": "coverageAmount",
      "outputs": [
        {
          "internalType": "uint256",
          "name": "",
          "type": "uint256"
        }
      ],
      "stateMutability": "view",
      "type": "function"
    },
    {
      "inputs": [],
      "name": "farmer",
      "outputs": [
        {
          "internalType": "address payable",
          "name": "",
          "type": "address"
        }
      ],
      "stateMutability": "view",
      "type": "function"
    },
    {
      "inputs": [],
      "name": "insurance",
      "outputs": [
        {
          "internalType": "contract Insurance",
          "name": "",
          "type": "address"
        }
      ],
      "stateMutability": "view",
      "type": "function"
    },
    {
      "inputs": [],
      "name": "insurer",
      "outputs": [
        {
          "internalType": "address payable",
          "name": "",
          "type": "address"
        }
      ],
      "stateMutability": "view",
      "type": "function"
    },
    {
      "inputs": [],
      "name": "payoutAmount",
      "outputs": [
        {
          "internalType": "uint256",
          "name": "",
          "type": "uint256"
        }
      ],
      "stateMutability": "view",
      "type": "function"
    },
    {
      "inputs": [],
      "name": "policyActive",
      "outputs": [
        {
          "internalType": "bool",
          "name": "",
          "type": "bool"
        }
      ],
      "stateMutability": "view",
      "type": "function"
    },
    {
      "inputs": [],
      "name": "premium",
      "outputs": [
        {
          "internalType": "uint256",
          "name": "",
          "type": "uint256"
        }
      ],
      "stateMutability": "view",
      "type": "function"
    },
    {
      "inputs": [],
      "name": "triggerThreshold",
      "outputs": [
        {
          "internalType": "uint256",
          "name": "",
          "type": "uint256"
        }
      ],
      "stateMutability": "view",
      "type": "function"
    },
    {
      "inputs": [],
      "name": "weatherData",
      "outputs": [
        {
          "internalType": "contract WeatherData",
          "name": "",
          "type": "address"
        }
      ],
      "stateMutability": "view",
      "type": "function"
    },
    {
      "inputs": [],
      "name": "activatePolicy",
      "outputs": [],
      "stateMutability": "nonpayable",
      "type": "function"
    },
    {
      "inputs": [],
      "name": "cancelPolicy",
      "outputs": [],
      "stateMutability": "nonpayable",
      "type": "function"
    },
    {
      "inputs": [],
      "name": "submitClaim",
      "outputs": [],
      "stateMutability": "nonpayable",
      "type": "function"
    }
  ],
  "bytecode": "0x60806040523480156200001157600080fd5b5060405162001c0838038062001c088339818101604052810190620000379190620002f6565b856000806101000a81548173ffffffffffffffffffffffffffffffffffffffff021916908373ffffffffffffffffffffffffffffffffffffffff16021790555084600160006101000a81548173ffffffffffffffffffffffffffffffffffffffff021916908373ffffffffffffffffffffffffffffffffffffffff16021790555083600281905550826003819055508160048190555080600860006101000a81548173ffffffffffffffffffffffffffffffffffffffff021916908373ffffffffffffffffffffffffffffffffffffffff160217905550306040516200011d90620001fe565b620001299190620003a3565b604051809103906000f08015801562000146573d6000803e3d6000fd5b50600760006101000a81548173ffffffffffffffffffffffffffffffffffffffff021916908373ffffffffffffffffffffffffffffffffffffffff1602179055508473ffffffffffffffffffffffffffffffffffffffff168673ffffffffffffffffffffffffffffffffffffffff167fc2d6fcdbe33e50ad151f78302184bf076c800a81677c1ffbd232f0807dfb13f1868686604051620001ea93929190620003d1565b60405180910390a35050505050506200040e565b61080d80620013fb83390190565b600080fd5b600073ffffffffffffffffffffffffffffffffffffffff82169050919050565b60006200023e8262000211565b9050919050565b620002508162000231565b81146200025c57600080fd5b50565b600081519050620002708162000245565b92915050565b6000819050919050565b6200028b8162000276565b81146200029757600080fd5b50565b600081519050620002ab8162000280565b92915050565b6000620002be8262000211565b9050919050565b620002d081620002b1565b8114620002dc57600080fd5b50565b600081519050620002f081620002c5565b92915050565b60008060008060008060c087890312156200031657620003156200020c565b5b60006200032689828a016200025f565b96505060206200033989828a016200025f565b95505060406200034c89828a016200029a565b94505060606200035f89828a016200029a565b93505060806200037289828a016200029a565b92505060a06200038589828a01620002df565b9150509295509295509295565b6200039d8162000231565b82525050565b6000602082019050620003ba600083018462000392565b92915050565b620003cb8162000276565b82525050565b6000606082019050620003e86000830186620003c0565b620003f76020830185620003c0565b620004066040830184620003c0565b949350505050565b610fdd806200041e6000396000f3fe608060405234801561001057600080fd5b50600436106100ea5760003560e01c806389cf32041161008c578063d811fcf011610066578063d811fcf0146101df578063dbc837c5146101fd578063e0a73a931461021b578063e47a37e314610239576100ea565b806389cf320414610185578063c764636e146101a3578063d6c8dec7146101c1576100ea565b80634f982fbb116100c85780634f982fbb14610121578063660d403f1461013f57806367c0d00f146101495780636b46c8c314610167576100ea565b80631afbd128146100ef578063470d6060146100f95780634ef2cc0014610117575b600080fd5b6100f7610257565b005b6101016105b4565b60405161010e9190610a71565b60405180910390f35b61011f6105c7565b005b610129610853565b6040516101369190610b0b565b60405180910390f35b610147610879565b005b6101516109a8565b60405161015e9190610b3f565b60405180910390f35b61016f6109ae565b60405161017c9190610b3f565b60405180910390f35b61018d6109b4565b60405161019a9190610b7b565b60405180910390f35b6101ab6109da565b6040516101b89190610a71565b60405180910390f35b6101c96109ed565b6040516101d69190610a71565b60405180910390f35b6101e7610a00565b6040516101f49190610bb7565b60405180910390f35b610205610a26565b6040516102129190610bb7565b60405180910390f35b610223610a4a565b6040516102309190610b3f565b60405180910390f35b610241610a50565b60405161024e9190610b3f565b60405180910390f35b60011515600560009054906101000a900460ff161515146102ad576040517f08c379a00000000000000000000000000000000000000000000000000000000081526004016102a490610c2f565b60405180910390fd5b60001515600560019054906101000a900460ff16151514610303576040517f08c379a00000000000000000000000000000000000000000000000000000000081526004016102fa90610c9b565b60405180910390fd5b600160009054906101000a900473ffffffffffffffffffffffffffffffffffffffff1673ffffffffffffffffffffffffffffffffffffffff163373ffffffffffffffffffffffffffffffffffffffff1614610393576040517f08c379a000000000000000000000000000000000000000000000000000000000815260040161038a90610d2d565b60405180910390fd5b6000600860009054906101000a900473ffffffffffffffffffffffffffffffffffffffff1673ffffffffffffffffffffffffffffffffffffffff16631a19c57c6040518163ffffffff1660e01b8152600401602060405180830381865afa158015610402573d6000803e3d6000fd5b505050506040513d601f19601f820116820180604052508101906104269190610d7e565b90506004548111610522576001600560026101000a81548160ff021916908315150217905550600354600681905550600760009054906101000a900473ffffffffffffffffffffffffffffffffffffffff1673ffffffffffffffffffffffffffffffffffffffff1663c290d6916006546040518263ffffffff1660e01b81526004016104b29190610b3f565b600060405180830381600087803b1580156104cc57600080fd5b505af11580156104e0573d6000803e3d6000fd5b505050507fd2d0ed0cccc8615643ade1eff3929a29ed8df75ebca85a3996e311c9b69e22896006546040516105159190610b3f565b60405180910390a161056a565b6000600560026101000a81548160ff0219169083151502179055507ff1d5cc2892412572f903136db8e4a27091ef963e4df0f64f763e7510428c3f2560405160405180910390a15b6001600560016101000a81548160ff0219169083151502179055507faf379aa50dd9a9652336f42c26c7a8bf9ebb620ed4895dd6a4453accbad8649160405160405180910390a150565b600560029054906101000a900460ff1681565b60011515600560009054906101000a900460ff1615151461061d576040517f08c379a000000000000000000000000000000000000000000000000000000000815260040161061490610df7565b60405180910390fd5b600160009054906101000a900473ffffffffffffffffffffffffffffffffffffffff1673ffffffffffffffffffffffffffffffffffffffff163373ffffffffffffffffffffffffffffffffffffffff1614806106c4575060008054906101000a900473ffffffffffffffffffffffffffffffffffffffff1673ffffffffffffffffffffffffffffffffffffffff163373ffffffffffffffffffffffffffffffffffffffff16145b610703576040517f08c379a00000000000000000000000000000000000000000000000000000000081526004016106fa90610e89565b60405180910390fd5b6000600560006101000a81548160ff0219169083151502179055506000600760009054906101000a900473ffffffffffffffffffffffffffffffffffffffff1673ffffffffffffffffffffffffffffffffffffffff1663b69ef8a86040518163ffffffff1660e01b8152600401602060405180830381865afa15801561078d573d6000803e3d6000fd5b505050506040513d601f19601f820116820180604052508101906107b19190610d7e565b905060008111156108245760008054906101000a900473ffffffffffffffffffffffffffffffffffffffff1673ffffffffffffffffffffffffffffffffffffffff166108fc829081150290604051600060405180830381858888f19350505050158015610822573d6000803e3d6000fd5b505b7fdfee0e3f026f06424dacbd4463aece850ae268a91bfdbbb8ce2aa7d3f5068f1860405160405180910390a150565b600860009054906101000a900473ffffffffffffffffffffffffffffffffffffffff1681565b60001515600560009054906101000a900460ff161515146108cf576040517f08c379a00000000000000000000000000000000000000000000000000000000081526004016108c690610ef5565b60405180910390fd5b600160009054906101000a900473ffffffffffffffffffffffffffffffffffffffff1673ffffffffffffffffffffffffffffffffffffffff163373ffffffffffffffffffffffffffffffffffffffff161461095f576040517f08c379a000000000000000000000000000000000000000000000000000000000815260040161095690610f87565b60405180910390fd5b6001600560006101000a81548160ff0219169083151502179055507f49679ec1f602dd318b48972e2398e185f4969bf89f4c32138a03ee806b3d784260405160405180910390a1565b60035481565b60065481565b600760009054906101000a900473ffffffffffffffffffffffffffffffffffffffff1681565b600560009054906101000a900460ff1681565b600560019054906101000a900460ff1681565b600160009054906101000a900473ffffffffffffffffffffffffffffffffffffffff1681565b60008054906101000a900473ffffffffffffffffffffffffffffffffffffffff1681565b60025481565b60045481565b60008115159050919050565b610a6b81610a56565b82525050565b6000602082019050610a866000830184610a62565b92915050565b600073ffffffffffffffffffffffffffffffffffffffff82169050919050565b6000819050919050565b6000610ad1610acc610ac784610a8c565b610aac565b610a8c565b9050919050565b6000610ae382610ab6565b9050919050565b6000610af582610ad8565b9050919050565b610b0581610aea565b82525050565b6000602082019050610b206000830184610afc565b92915050565b6000819050919050565b610b3981610b26565b82525050565b6000602082019050610b546000830184610b30565b92915050565b6000610b6582610ad8565b9050919050565b610b7581610b5a565b82525050565b6000602082019050610b906000830184610b6c565b92915050565b6000610ba182610a8c565b9050919050565b610bb181610b96565b82525050565b6000602082019050610bcc6000830184610ba8565b92915050565b600082825260208201905092915050565b7f506f6c696379206973206e6f7420616374697665000000000000000000000000600082015250565b6000610c19601483610bd2565b9150610c2482610be3565b602082019050919050565b60006020820190508181036000830152610c4881610c0c565b9050919050565b7f436c61696d2068617320616c7265616479206265656e207375626d6974746564600082015250565b6000610c85602083610bd2565b9150610c9082610c4f565b602082019050919050565b60006020820190508181036000830152610cb481610c78565b9050919050565b7f4f6e6c7920746865206661726d65722063616e207375626d6974206120636c6160008201527f696d000000000000000000000000000000000000000000000000000000000000602082015250565b6000610d17602283610bd2565b9150610d2282610cbb565b604082019050919050565b60006020820190508181036000830152610d4681610d0a565b9050919050565b600080fd5b610d5b81610b26565b8114610d6657600080fd5b50565b600081519050610d7881610d52565b92915050565b600060208284031215610d9457610d93610d4d565b5b6000610da284828501610d69565b91505092915050565b7f506f6c69637920697320616c72656164792063616e63656c6c65640000000000600082015250565b6000610de1601b83610bd2565b9150610dec82610dab565b602082019050919050565b60006020820190508181036000830152610e1081610dd4565b9050919050565b7f4f6e6c7920746865206661726d6572206f7220696e73757265722063616e206360008201527f616e63656c2074686520706f6c69637900000000000000000000000000000000602082015250565b6000610e73603083610bd2565b9150610e7e82610e17565b604082019050919050565b60006020820190508181036000830152610ea281610e66565b9050919050565b7f506f6c69637920697320616c7265616479206163746976650000000000000000600082015250565b6000610edf601883610bd2565b9150610eea82610ea9565b602082019050919050565b60006020820190508181036000830152610f0e81610ed2565b9050919050565b7f4f6e6c7920746865206661726d65722063616e2061637469766174652074686560008201527f20706f6c69637900000000000000000000000000000000000000000000000000602082015250565b6000610f71602783610bd2565b9150610f7c82610f15565b604082019050919050565b60006020820190508181036000830152610fa081610f64565b905091905056fea26469706673582212202d0363de343f1917cb2f687fe2cd285a1cb3987b66b60a9223fc7f9e7a5b302064736f6c63430008110033608060405234801561001057600080fd5b5060405161080d38038061080d8339818101604052810190610032919061011f565b80600160006101000a81548173ffffffffffffffffffffffffffffffffffffffff021916908373ffffffffffffffffffffffffffffffffffffffff1602179055508073ffffffffffffffffffffffffffffffffffffffff167f2f111d8a56aa0ad671b0442ae028827407496656571a697781157db90a03ae1460405160405180910390a25061014c565b600080fd5b600073ffffffffffffffffffffffffffffffffffffffff82169050919050565b60006100ec826100c1565b9050919050565b6100fc816100e1565b811461010757600080fd5b50565b600081519050610119816100f3565b92915050565b600060208284031215610135576101346100bc565b5b60006101438482850161010a565b91505092915050565b6106b28061015b6000396000f3fe60806040526004361061003f5760003560e01c806329c08ba214610044578063478426631461004e578063b69ef8a814610079578063c290d691146100a4575b600080fd5b61004c6100cd565b005b34801561005a57600080fd5b50610063610161565b6040516100709190610397565b60405180910390f35b34801561008557600080fd5b5061008e610187565b60405161009b91906103cb565b60405180910390f35b3480156100b057600080fd5b506100cb60048036038101906100c69190610417565b61018d565b005b60003411610110576040517f08c379a0000000000000000000000000000000000000000000000000000000008152600401610107906104c7565b60405180910390fd5b346000808282546101219190610516565b925050819055507f426fde376ad06cb3d6079fd86f5696a4de5382bccf98c90ed6b935014588fd783460405161015791906103cb565b60405180910390a1565b600160009054906101000a900473ffffffffffffffffffffffffffffffffffffffff1681565b60005481565b600160009054906101000a900473ffffffffffffffffffffffffffffffffffffffff1673ffffffffffffffffffffffffffffffffffffffff163373ffffffffffffffffffffffffffffffffffffffff161461021d576040517f08c379a0000000000000000000000000000000000000000000000000000000008152600401610214906105bc565b60405180910390fd5b600054811115610262576040517f08c379a000000000000000000000000000000000000000000000000000000000815260040161025990610628565b60405180910390fd5b600160009054906101000a900473ffffffffffffffffffffffffffffffffffffffff1673ffffffffffffffffffffffffffffffffffffffff166108fc829081150290604051600060405180830381858888f193505050501580156102ca573d6000803e3d6000fd5b50806000808282546102dc9190610648565b92505081905550600160009054906101000a900473ffffffffffffffffffffffffffffffffffffffff1673ffffffffffffffffffffffffffffffffffffffff167f5afeca38b2064c23a692c4cf353015d80ab3ecc417b4f893f372690c11fbd9a68260405161034b91906103cb565b60405180910390a250565b600073ffffffffffffffffffffffffffffffffffffffff82169050919050565b600061038182610356565b9050919050565b61039181610376565b82525050565b60006020820190506103ac6000830184610388565b92915050565b6000819050919050565b6103c5816103b2565b82525050565b60006020820190506103e060008301846103bc565b92915050565b600080fd5b6103f4816103b2565b81146103ff57600080fd5b50565b600081359050610411816103eb565b92915050565b60006020828403121561042d5761042c6103e6565b5b600061043b84828501610402565b91505092915050565b600082825260208201905092915050565b7f5072656d69756d20616d6f756e74206d7573742062652067726561746572207460008201527f68616e207a65726f000000000000000000000000000000000000000000000000602082015250565b60006104b1602883610444565b91506104bc82610455565b604082019050919050565b600060208201905081810360008301526104e0816104a4565b9050919050565b7f4e487b7100000000000000000000000000000000000000000000000000000000600052601160045260246000fd5b6000610521826103b2565b915061052c836103b2565b9250828201905080821115610544576105436104e7565b5b92915050565b7f4f6e6c7920746865207269736b206d616e616765722063616e206d616b65207060008201527f61796f7574730000000000000000000000000000000000000000000000000000602082015250565b60006105a6602683610444565b91506105b18261054a565b604082019050919050565b600060208201905081810360008301526105d581610599565b9050919050565b7f496e73756666696369656e742066756e64730000000000000000000000000000600082015250565b6000610612601283610444565b915061061d826105dc565b602082019050919050565b6000602082019050818103600083015261064181610605565b9050919050565b6000610653826103b2565b915061065e836103b2565b9250828203905081811115610676576106756104e7565b5b9291505056fea26469706673582212203829ef9c4dd1b8ce4c2903362965568bd060c42edffb1c9d3a39dca29757d29964736f6c63430008110033",
  "immutableReferences": {},
  "source": "// SPDX-License-Identifier: MIT\r\n\r\npragma solidity ^0.8.17;\r\n\r\ninterface WeatherData {\r\n    function getWeather() external view returns (uint);\r\n}\r\n\r\ncontract Insurance {\r\n    uint public balance;\r\n    address payable public riskManager;\r\n    \r\n    event PolicyCreated(address indexed _riskManager);\r\n    event PremiumReceived(uint _amount);\r\n    event Payout(address indexed _recipient, uint _amount);\r\n    \r\n    constructor(address payable _riskManager) {\r\n        riskManager = _riskManager;\r\n        emit PolicyCreated(_riskManager);\r\n    }\r\n    \r\n    function payPremium() public payable {\r\n        require(msg.value > 0, \"Premium amount must be greater than zero\");\r\n        balance += msg.value;\r\n        emit PremiumReceived(msg.value);\r\n    }\r\n    \r\n    function pay(uint _amount) public {\r\n        require(msg.sender == riskManager, \"Only the risk manager can make payouts\");\r\n        require(_amount <= balance, \"Insufficient funds\");\r\n        \r\n        riskManager.transfer(_amount);\r\n        balance -= _amount;\r\n        emit Payout(riskManager, _amount);\r\n    }\r\n}\r\n\r\ncontract RiskManager {\r\n    address payable public insurer;\r\n    address payable public farmer;\r\n    uint public premium;\r\n    uint public coverageAmount;\r\n    uint public triggerThreshold;\r\n    bool public policyActive;\r\n    bool public claimSubmitted;\r\n    bool public claimApproved;\r\n    uint public payoutAmount;\r\n    Insurance public insurance;\r\n    WeatherData public weatherData;\r\n    \r\n    event PolicyCreated(address indexed _insurer, address indexed _farmer, uint _premium, uint _coverageAmount, uint _triggerThreshold);\r\n    event PolicyActivated();\r\n    event PolicyCancelled();\r\n    event ClaimSubmitted();\r\n    event ClaimApproved(uint _payoutAmount);\r\n    event ClaimRejected();\r\n    \r\n    constructor(\r\n        address payable _insurer,\r\n        address payable _farmer,\r\n        uint _premium,\r\n        uint _coverageAmount,\r\n        uint _triggerThreshold,\r\n        address _weatherDataContract\r\n    ) {\r\n        insurer = _insurer;\r\n        farmer = _farmer;\r\n        premium = _premium;\r\n        coverageAmount = _coverageAmount;\r\n        triggerThreshold = _triggerThreshold;\r\n        weatherData = WeatherData(_weatherDataContract);\r\n        insurance = new Insurance(payable(address(this)));\r\n        emit PolicyCreated(_insurer, _farmer, _premium, _coverageAmount, _triggerThreshold);\r\n    }\r\n    \r\n    function activatePolicy() public {\r\n        require(policyActive == false, \"Policy is already active\");\r\n        require(msg.sender == farmer, \"Only the farmer can activate the policy\");\r\n        policyActive = true;\r\n        emit PolicyActivated();\r\n    }\r\n    \r\n    function cancelPolicy() public {\r\n        require(policyActive == true, \"Policy is already cancelled\");\r\n        require(msg.sender == farmer || msg.sender == insurer, \"Only the farmer or insurer can cancel the policy\");\r\n        policyActive = false;\r\n        uint balance = insurance.balance();\r\n        if (balance > 0) {\r\n            insurer.transfer(balance);\r\n        }\r\n        emit PolicyCancelled();\r\n    }\r\n    \r\n    function submitClaim() public {\r\n        require(policyActive == true, \"Policy is not active\");\r\n        require(claimSubmitted == false, \"Claim has already been submitted\");\r\n        require(msg.sender == farmer, \"Only the farmer can submit a claim\");\r\n        uint weatherValue = weatherData.getWeather();\r\n        if (weatherValue <= triggerThreshold) {\r\n            claimApproved = true;\r\n            payoutAmount = coverageAmount;\r\n            insurance.pay(payoutAmount);\r\n            emit ClaimApproved(payoutAmount);\r\n        } else {\r\n            claimApproved = false;\r\n            emit ClaimRejected();\r\n        }\r\n        claimSubmitted = true;\r\n        emit ClaimSubmitted();\r\n    }\r\n}",
  "sourcePath": "C:\\Users\\Asus\\OneDrive\\Desktop\\hackhathon project\\contracts\\riskmanager.sol",
  "compiler": {
    "name": "solc",
    "version": "0.8.17+commit.8df45f5f.Emscripten.clang"
  },
  "schemaVersion": "3.4.11",
  "updatedAt": "2023-03-01T10:31:55.246Z",
  "devdoc": {
    "kind": "dev",
    "methods": {},
    "version": 1
  },
  "userdoc": {
    "kind": "user",
    "methods": {},
    "version": 1
  }
}