{
  "contractName": "WeatherData",
  "abi": [
    {
      "inputs": [],
      "stateMutability": "nonpayable",
      "type": "constructor"
    },
    {
      "inputs": [
        {
          "internalType": "uint256",
          "name": "_temperature",
          "type": "uint256"
        }
      ],
      "name": "setTemperature",
      "outputs": [],
      "stateMutability": "nonpayable",
      "type": "function"
    },
    {
      "inputs": [
        {
          "internalType": "uint256",
          "name": "_humidity",
          "type": "uint256"
        }
      ],
      "name": "setHumidity",
      "outputs": [],
      "stateMutability": "nonpayable",
      "type": "function"
    },
    {
      "inputs": [],
      "name": "getTemperature",
      "outputs": [
        {
          "internalType": "uint256",
          "name": "",
          "type": "uint256"
        }
      ],
      "stateMutability": "view",
      "type": "function"
    },
    {
      "inputs": [],
      "name": "getHumidity",
      "outputs": [
        {
          "internalType": "uint256",
          "name": "",
          "type": "uint256"
        }
      ],
      "stateMutability": "view",
      "type": "function"
    }
  ],
  "bytecode": "0x608060405234801561001057600080fd5b50336000806101000a81548173ffffffffffffffffffffffffffffffffffffffff021916908373ffffffffffffffffffffffffffffffffffffffff160217905550610373806100606000396000f3fe608060405234801561001057600080fd5b506004361061004b5760003560e01c8062287373146100505780633428a9fc1461006c57806348f144701461008a5780636421d04b146100a6575b600080fd5b61006a60048036038101906100659190610243565b6100c4565b005b61007461015c565b604051610081919061027f565b60405180910390f35b6100a4600480360381019061009f9190610243565b610166565b005b6100ae6101fe565b6040516100bb919061027f565b60405180910390f35b60008054906101000a900473ffffffffffffffffffffffffffffffffffffffff1673ffffffffffffffffffffffffffffffffffffffff163373ffffffffffffffffffffffffffffffffffffffff1614610152576040517f08c379a00000000000000000000000000000000000000000000000000000000081526004016101499061031d565b60405180910390fd5b8060028190555050565b6000600254905090565b60008054906101000a900473ffffffffffffffffffffffffffffffffffffffff1673ffffffffffffffffffffffffffffffffffffffff163373ffffffffffffffffffffffffffffffffffffffff16146101f4576040517f08c379a00000000000000000000000000000000000000000000000000000000081526004016101eb9061031d565b60405180910390fd5b8060018190555050565b6000600154905090565b600080fd5b6000819050919050565b6102208161020d565b811461022b57600080fd5b50565b60008135905061023d81610217565b92915050565b60006020828403121561025957610258610208565b5b60006102678482850161022e565b91505092915050565b6102798161020d565b82525050565b60006020820190506102946000830184610270565b92915050565b600082825260208201905092915050565b7f4f6e6c792074686520636f6e7472616374206f776e65722063616e2063616c6c60008201527f20746869732066756e6374696f6e2e0000000000000000000000000000000000602082015250565b6000610307602f8361029a565b9150610312826102ab565b604082019050919050565b60006020820190508181036000830152610336816102fa565b905091905056fea264697066735822122086e251c74e033fbd22b803109cc5c2a85c2849cba957161455311e12aaa6b63b64736f6c63430008110033",
  "immutableReferences": {},
  "source": "// SPDX-License-Identifier: MIT\r\n\r\npragma solidity ^0.8.17;\r\n\r\ncontract WeatherData {\r\n    address owner;\r\n    uint temperature;\r\n    uint humidity;\r\n\r\n    constructor() {\r\n        owner = msg.sender;\r\n    }\r\n\r\n    modifier onlyOwner() {\r\n        require(msg.sender == owner, \"Only the contract owner can call this function.\");\r\n        _;\r\n    }\r\n\r\n    function setTemperature(uint _temperature) public onlyOwner {\r\n        temperature = _temperature;\r\n    }\r\n\r\n    function setHumidity(uint _humidity) public onlyOwner {\r\n        humidity = _humidity;\r\n    }\r\n\r\n    function getTemperature() public view returns (uint) {\r\n        return temperature;\r\n    }\r\n\r\n    function getHumidity() public view returns (uint) {\r\n        return humidity;\r\n    }\r\n}\r\n",
  "sourcePath": "C:\\Users\\Asus\\OneDrive\\Desktop\\hackhathon project\\contracts\\weatherdata.sol",
  "compiler": {
    "name": "solc",
    "version": "0.8.17+commit.8df45f5f.Emscripten.clang"
  },
  "schemaVersion": "3.4.11",
  "updatedAt": "2023-03-01T10:31:55.254Z",
  "devdoc": {
    "kind": "dev",
    "methods": {},
    "version": 1
  },
  "userdoc": {
    "kind": "user",
    "methods": {},
    "version": 1
  }
}